{
  "contractName": "SlotNFT",
  "abi": [
    {
      "inputs": [
        {
          "internalType": "address",
          "name": "_adminAddress",
          "type": "address"
        },
        {
          "internalType": "address",
          "name": "_operatorAddress",
          "type": "address"
        },
        {
          "internalType": "address",
          "name": "_gameTokenAddress",
          "type": "address"
        },
        {
          "internalType": "address",
          "name": "_nftTokenAddress",
          "type": "address"
        },
        {
          "internalType": "uint256",
          "name": "_gameFee",
          "type": "uint256"
        }
      ],
      "stateMutability": "nonpayable",
      "type": "constructor"
    },
    {
      "anonymous": false,
      "inputs": [
        {
          "indexed": false,
          "internalType": "uint256",
          "name": "roundId",
          "type": "uint256"
        },
        {
          "indexed": false,
          "internalType": "address",
          "name": "user",
          "type": "address"
        },
        {
          "indexed": false,
          "internalType": "uint256",
          "name": "gameFee",
          "type": "uint256"
        },
        {
          "indexed": false,
          "internalType": "uint8",
          "name": "bracket",
          "type": "uint8"
        },
        {
          "indexed": false,
          "internalType": "uint256",
          "name": "amount",
          "type": "uint256"
        }
      ],
      "name": "GameEntered",
      "type": "event"
    },
    {
      "anonymous": false,
      "inputs": [
        {
          "indexed": false,
          "internalType": "uint256",
          "name": "gameFee",
          "type": "uint256"
        }
      ],
      "name": "GameFeeSet",
      "type": "event"
    },
    {
      "anonymous": false,
      "inputs": [
        {
          "indexed": false,
          "internalType": "address",
          "name": "tokenAddress",
          "type": "address"
        }
      ],
      "name": "NewGameToken",
      "type": "event"
    },
    {
      "anonymous": false,
      "inputs": [
        {
          "indexed": false,
          "internalType": "address",
          "name": "nftTokenAddress",
          "type": "address"
        }
      ],
      "name": "NewNftAddress",
      "type": "event"
    },
    {
      "anonymous": false,
      "inputs": [
        {
          "indexed": false,
          "internalType": "address",
          "name": "operator",
          "type": "address"
        }
      ],
      "name": "NewOperatorAddress",
      "type": "event"
    },
    {
      "anonymous": false,
      "inputs": [
        {
          "indexed": true,
          "internalType": "address",
          "name": "previousOwner",
          "type": "address"
        },
        {
          "indexed": true,
          "internalType": "address",
          "name": "newOwner",
          "type": "address"
        }
      ],
      "name": "OwnershipTransferred",
      "type": "event"
    },
    {
      "anonymous": false,
      "inputs": [
        {
          "indexed": false,
          "internalType": "address",
          "name": "account",
          "type": "address"
        }
      ],
      "name": "Paused",
      "type": "event"
    },
    {
      "anonymous": false,
      "inputs": [
        {
          "indexed": false,
          "internalType": "address",
          "name": "player",
          "type": "address"
        },
        {
          "indexed": false,
          "internalType": "uint256",
          "name": "amount",
          "type": "uint256"
        }
      ],
      "name": "PlayerClaimed",
      "type": "event"
    },
    {
      "anonymous": false,
      "inputs": [
        {
          "indexed": false,
          "internalType": "uint256",
          "name": "roundId",
          "type": "uint256"
        },
        {
          "indexed": false,
          "internalType": "uint256",
          "name": "amount",
          "type": "uint256"
        },
        {
          "indexed": false,
          "internalType": "uint8",
          "name": "bracket",
          "type": "uint8"
        }
      ],
      "name": "ResultUpdated",
      "type": "event"
    },
    {
      "anonymous": false,
      "inputs": [
        {
          "indexed": false,
          "internalType": "uint256",
          "name": "amount",
          "type": "uint256"
        }
      ],
      "name": "TreasuryClaim",
      "type": "event"
    },
    {
      "anonymous": false,
      "inputs": [
        {
          "indexed": false,
          "internalType": "address",
          "name": "account",
          "type": "address"
        }
      ],
      "name": "Unpaused",
      "type": "event"
    },
    {
      "inputs": [],
      "name": "adminAddress",
      "outputs": [
        {
          "internalType": "address",
          "name": "",
          "type": "address"
        }
      ],
      "stateMutability": "view",
      "type": "function"
    },
    {
      "inputs": [
        {
          "internalType": "uint256",
          "name": "",
          "type": "uint256"
        }
      ],
      "name": "brackets",
      "outputs": [
        {
          "internalType": "uint8",
          "name": "",
          "type": "uint8"
        }
      ],
      "stateMutability": "view",
      "type": "function"
    },
    {
      "inputs": [],
      "name": "gameFee",
      "outputs": [
        {
          "internalType": "uint256",
          "name": "",
          "type": "uint256"
        }
      ],
      "stateMutability": "view",
      "type": "function"
    },
    {
      "inputs": [],
      "name": "gameToken",
      "outputs": [
        {
          "internalType": "address",
          "name": "",
          "type": "address"
        }
      ],
      "stateMutability": "view",
      "type": "function"
    },
    {
      "inputs": [
        {
          "internalType": "uint256",
          "name": "",
          "type": "uint256"
        }
      ],
      "name": "ledger",
      "outputs": [
        {
          "internalType": "address",
          "name": "playerAddress",
          "type": "address"
        },
        {
          "internalType": "uint256",
          "name": "roundId",
          "type": "uint256"
        },
        {
          "internalType": "uint256",
          "name": "amount",
          "type": "uint256"
        },
        {
          "internalType": "bool",
          "name": "updated",
          "type": "bool"
        },
        {
          "internalType": "bool",
          "name": "claimed",
          "type": "bool"
        }
      ],
      "stateMutability": "view",
      "type": "function"
    },
    {
      "inputs": [],
      "name": "nftTokenAddress",
      "outputs": [
        {
          "internalType": "address",
          "name": "",
          "type": "address"
        }
      ],
      "stateMutability": "view",
      "type": "function"
    },
    {
      "inputs": [
        {
          "internalType": "address",
          "name": "",
          "type": "address"
        },
        {
          "internalType": "address",
          "name": "",
          "type": "address"
        },
        {
          "internalType": "uint256[]",
          "name": "",
          "type": "uint256[]"
        },
        {
          "internalType": "uint256[]",
          "name": "",
          "type": "uint256[]"
        },
        {
          "internalType": "bytes",
          "name": "",
          "type": "bytes"
        }
      ],
      "name": "onERC1155BatchReceived",
      "outputs": [
        {
          "internalType": "bytes4",
          "name": "",
          "type": "bytes4"
        }
      ],
      "stateMutability": "nonpayable",
      "type": "function"
    },
    {
      "inputs": [
        {
          "internalType": "address",
          "name": "",
          "type": "address"
        },
        {
          "internalType": "address",
          "name": "",
          "type": "address"
        },
        {
          "internalType": "uint256",
          "name": "",
          "type": "uint256"
        },
        {
          "internalType": "uint256",
          "name": "",
          "type": "uint256"
        },
        {
          "internalType": "bytes",
          "name": "",
          "type": "bytes"
        }
      ],
      "name": "onERC1155Received",
      "outputs": [
        {
          "internalType": "bytes4",
          "name": "",
          "type": "bytes4"
        }
      ],
      "stateMutability": "nonpayable",
      "type": "function"
    },
    {
      "inputs": [],
      "name": "operatorAddress",
      "outputs": [
        {
          "internalType": "address",
          "name": "",
          "type": "address"
        }
      ],
      "stateMutability": "view",
      "type": "function"
    },
    {
      "inputs": [],
      "name": "owner",
      "outputs": [
        {
          "internalType": "address",
          "name": "",
          "type": "address"
        }
      ],
      "stateMutability": "view",
      "type": "function"
    },
    {
      "inputs": [],
      "name": "paused",
      "outputs": [
        {
          "internalType": "bool",
          "name": "",
          "type": "bool"
        }
      ],
      "stateMutability": "view",
      "type": "function"
    },
    {
      "inputs": [],
      "name": "renounceOwnership",
      "outputs": [],
      "stateMutability": "nonpayable",
      "type": "function"
    },
    {
      "inputs": [
        {
          "internalType": "bytes4",
          "name": "interfaceId",
          "type": "bytes4"
        }
      ],
      "name": "supportsInterface",
      "outputs": [
        {
          "internalType": "bool",
          "name": "",
          "type": "bool"
        }
      ],
      "stateMutability": "view",
      "type": "function"
    },
    {
      "inputs": [],
      "name": "threshold",
      "outputs": [
        {
          "internalType": "uint8",
          "name": "",
          "type": "uint8"
        }
      ],
      "stateMutability": "view",
      "type": "function"
    },
    {
      "inputs": [
        {
          "internalType": "address",
          "name": "newOwner",
          "type": "address"
        }
      ],
      "name": "transferOwnership",
      "outputs": [],
      "stateMutability": "nonpayable",
      "type": "function"
    },
    {
      "inputs": [
        {
          "internalType": "address",
          "name": "",
          "type": "address"
        },
        {
          "internalType": "uint256",
          "name": "",
          "type": "uint256"
        }
      ],
      "name": "userRounds",
      "outputs": [
        {
          "internalType": "uint256",
          "name": "",
          "type": "uint256"
        }
      ],
      "stateMutability": "view",
      "type": "function"
    },
    {
      "inputs": [
        {
          "internalType": "address",
          "name": "",
          "type": "address"
        }
      ],
      "name": "userWinnings",
      "outputs": [
        {
          "internalType": "uint256",
          "name": "",
          "type": "uint256"
        }
      ],
      "stateMutability": "view",
      "type": "function"
    },
    {
      "inputs": [
        {
          "internalType": "uint256",
          "name": "",
          "type": "uint256"
        }
      ],
      "name": "winnings",
      "outputs": [
        {
          "internalType": "uint256",
          "name": "",
          "type": "uint256"
        }
      ],
      "stateMutability": "view",
      "type": "function"
    },
    {
      "inputs": [
        {
          "internalType": "address",
          "name": "_operatorAddress",
          "type": "address"
        }
      ],
      "name": "setOperator",
      "outputs": [],
      "stateMutability": "nonpayable",
      "type": "function"
    },
    {
      "inputs": [
        {
          "internalType": "address",
          "name": "_nftTokenAddress",
          "type": "address"
        }
      ],
      "name": "setNftTokenAddress",
      "outputs": [],
      "stateMutability": "nonpayable",
      "type": "function"
    },
    {
      "inputs": [
        {
          "internalType": "uint8[]",
          "name": "_brackets",
          "type": "uint8[]"
        }
      ],
      "name": "setBrackets",
      "outputs": [],
      "stateMutability": "nonpayable",
      "type": "function"
    },
    {
      "inputs": [
        {
          "internalType": "uint256[]",
          "name": "_winnings",
          "type": "uint256[]"
        }
      ],
      "name": "setWinnings",
      "outputs": [],
      "stateMutability": "nonpayable",
      "type": "function"
    },
    {
      "inputs": [
        {
          "internalType": "uint8",
          "name": "_threshold",
          "type": "uint8"
        }
      ],
      "name": "setThreshold",
      "outputs": [],
      "stateMutability": "nonpayable",
      "type": "function"
    },
    {
      "inputs": [
        {
          "internalType": "uint256",
          "name": "_gameFee",
          "type": "uint256"
        }
      ],
      "name": "setGameFee",
      "outputs": [],
      "stateMutability": "nonpayable",
      "type": "function"
    },
    {
      "inputs": [
        {
          "internalType": "address",
          "name": "tokenAddress",
          "type": "address"
        }
      ],
      "name": "setGameToken",
      "outputs": [],
      "stateMutability": "nonpayable",
      "type": "function"
    },
    {
      "inputs": [
        {
          "internalType": "uint256",
          "name": "_roundId",
          "type": "uint256"
        }
      ],
      "name": "enterGame",
      "outputs": [],
      "stateMutability": "nonpayable",
      "type": "function"
    },
    {
      "inputs": [],
      "name": "claim",
      "outputs": [],
      "stateMutability": "nonpayable",
      "type": "function"
    },
    {
      "inputs": [
        {
          "internalType": "uint256",
          "name": "value",
          "type": "uint256"
        }
      ],
      "name": "claimTreasury",
      "outputs": [],
      "stateMutability": "nonpayable",
      "type": "function"
    },
    {
      "inputs": [
        {
          "internalType": "address",
          "name": "_address",
          "type": "address"
        }
      ],
      "name": "getUserWinnings",
      "outputs": [
        {
          "internalType": "uint256",
          "name": "",
          "type": "uint256"
        }
      ],
      "stateMutability": "view",
      "type": "function"
    },
    {
      "inputs": [
        {
          "internalType": "address",
          "name": "_address",
          "type": "address"
        }
      ],
      "name": "getUserRounds",
      "outputs": [
        {
          "internalType": "uint256[]",
          "name": "",
          "type": "uint256[]"
        }
      ],
      "stateMutability": "view",
      "type": "function"
    },
    {
      "inputs": [
        {
          "internalType": "uint256",
          "name": "_roundId",
          "type": "uint256"
        }
      ],
      "name": "getLegerEntryForRoundId",
      "outputs": [
        {
          "components": [
            {
              "internalType": "address",
              "name": "playerAddress",
              "type": "address"
            },
            {
              "internalType": "uint256",
              "name": "roundId",
              "type": "uint256"
            },
            {
              "internalType": "uint256",
              "name": "amount",
              "type": "uint256"
            },
            {
              "internalType": "bool",
              "name": "updated",
              "type": "bool"
            },
            {
              "internalType": "bool",
              "name": "claimed",
              "type": "bool"
            }
          ],
          "internalType": "struct SlotNFT.RoundInfo",
          "name": "",
          "type": "tuple"
        }
      ],
      "stateMutability": "view",
      "type": "function"
    }
  ],
  "bytecode": "0x60806040523480156200001157600080fd5b506040516200220a3803806200220a833981016040819052620000349162000103565b6200003f3362000096565b6000805460ff60a01b1916905560018055600280546001600160a01b03199081166001600160a01b03978816179091556003805460048054841696891696909617909555931691909416179055506006556200016a565b600080546001600160a01b038381166001600160a01b0319831681178455604051919092169283917f8be0079c531659141344cd1fd0a4f28419497f9722a3daafe3b4186f6b6457e09190a35050565b80516001600160a01b0381168114620000fe57600080fd5b919050565b600080600080600060a086880312156200011c57600080fd5b6200012786620000e6565b94506200013760208701620000e6565b93506200014760408701620000e6565b92506200015760608701620000e6565b9150608086015190509295509295909350565b612090806200017a6000396000f3fe608060405234801561001057600080fd5b50600436106101e55760003560e01c8063a3445cc61161010f578063dd1f7596116100a2578063ee1b095311610071578063ee1b0953146105ee578063f23a6e6114610601578063f2fde38b14610639578063fc6f94681461064c57600080fd5b8063dd1f7596146105ac578063e3681d2a146105bf578063e5a98603146105d2578063ea777eec146105e557600080fd5b8063b2f09086116100de578063b2f090861461050a578063b3ab15fb1461051d578063bc197c8114610530578063c3dfdae61461059957600080fd5b8063a3445cc6146103d9578063a38bcc78146103ec578063a815a4d4146103ff578063aaa6cd191461041f57600080fd5b806343d6582b11610187578063715018a611610156578063715018a61461039a57806380d29e66146103a25780638da5cb5b146103b55780639f9357d1146103c657600080fd5b806343d6582b146103475780634e71d92d1461035c5780635c975abb146103645780635d57ab281461038757600080fd5b8063127effb2116101c3578063127effb2146102be5780631b3e0799146102d15780633a5062941461030857806342cde4e81461032857600080fd5b806301ffc9a7146101ea578063059cd0cd1461021257806310a7fd7b1461023d575b600080fd5b6101fd6101f8366004611b5f565b61065f565b60405190151581526020015b60405180910390f35b600554610225906001600160a01b031681565b6040516001600160a01b039091168152602001610209565b61028861024b366004611ba1565b60076020526000908152604090208054600182015460028301546003909301546001600160a01b0390921692909160ff8082169161010090041685565b604080516001600160a01b039096168652602086019490945292840191909152151560608301521515608082015260a001610209565b600354610225906001600160a01b031681565b6102fa6102df366004611bd6565b6001600160a01b031660009081526009602052604090205490565b604051908152602001610209565b61031b610316366004611bd6565b6106f8565b6040516102099190611bf1565b600c546103359060ff1681565b60405160ff9091168152602001610209565b61035a610355366004611ba1565b610764565b005b61035a610b5b565b60005474010000000000000000000000000000000000000000900460ff166101fd565b6102fa610395366004611ba1565b610ebe565b61035a610edf565b61035a6103b0366004611bd6565b610f45565b6000546001600160a01b0316610225565b61035a6103d4366004611ba1565b611043565b61035a6103e7366004611c81565b6111a5565b61035a6103fa366004611ba1565b6111fc565b6102fa61040d366004611bd6565b60096020526000908152604090205481565b6104bb61042d366004611ba1565b6040805160a08101825260008082526020820181905291810182905260608101829052608081019190915250600090815260076020908152604091829020825160a08101845281546001600160a01b0316815260018201549281019290925260028101549282019290925260039091015460ff80821615156060840152610100909104161515608082015290565b6040516102099190600060a0820190506001600160a01b038351168252602083015160208301526040830151604083015260608301511515606083015260808301511515608083015292915050565b61035a610518366004611c81565b6112c7565b61035a61052b366004611bd6565b611319565b61056861053e366004611dfa565b7fbc197c810000000000000000000000000000000000000000000000000000000095945050505050565b6040517fffffffff000000000000000000000000000000000000000000000000000000009091168152602001610209565b600454610225906001600160a01b031681565b6102fa6105ba366004611ea4565b611410565b61035a6105cd366004611bd6565b611441565b61035a6105e0366004611ece565b611538565b6102fa60065481565b6103356105fc366004611ba1565b611594565b61056861060f366004611ef1565b7ff23a6e610000000000000000000000000000000000000000000000000000000095945050505050565b61035a610647366004611bd6565b6115c8565b600254610225906001600160a01b031681565b60007fffffffff0000000000000000000000000000000000000000000000000000000082167f4e2312e00000000000000000000000000000000000000000000000000000000014806106f257507f01ffc9a7000000000000000000000000000000000000000000000000000000007fffffffff000000000000000000000000000000000000000000000000000000008316145b92915050565b6001600160a01b03811660009081526008602090815260409182902080548351818402810184019094528084526060939283018282801561075857602002820191906000526020600020905b815481526020019060010190808311610744575b50505050509050919050565b60005474010000000000000000000000000000000000000000900460ff16156107d45760405162461bcd60e51b815260206004820152601060248201527f5061757361626c653a207061757365640000000000000000000000000000000060448201526064015b60405180910390fd5b6002600154036108265760405162461bcd60e51b815260206004820152601f60248201527f5265656e7472616e637947756172643a207265656e7472616e742063616c6c0060448201526064016107cb565b6002600155333b1561087a5760405162461bcd60e51b815260206004820152601460248201527f436f6e7472616374206e6f7420616c6c6f77656400000000000000000000000060448201526064016107cb565b3332146108c95760405162461bcd60e51b815260206004820152601a60248201527f50726f787920636f6e7472616374206e6f7420616c6c6f77656400000000000060448201526064016107cb565b806000036109195760405162461bcd60e51b815260206004820152600f60248201527f6d697373696e6720526f756e644964000000000000000000000000000000000060448201526064016107cb565b600081815260076020526040902080546001600160a01b03161561097f5760405162461bcd60e51b815260206004820152601060248201527f6578697374696e6720726f756e6449640000000000000000000000000000000060448201526064016107cb565b600480546006546040517f23b872dd000000000000000000000000000000000000000000000000000000008152339381019390935230602484015260448301526000916001600160a01b03909116906323b872dd906064016020604051808303816000875af11580156109f6573d6000803e3d6000fd5b505050506040513d601f19601f82011682018060405250810190610a1a9190611f56565b90508015610b0a57815473ffffffffffffffffffffffffffffffffffffffff19163390811783556006546002840155600180840185905560009182526008602090815260408320805492830181558352822001849055610a79846116aa565b90507f68f154ad880e236801ed1d6a0d7797c70ae6105cb36db8cd17d971640056cc0f843360065484600060028110610ab457610ab4611f78565b60200201518560016020020151604051610afc9594939291909485526001600160a01b03939093166020850152604084019190915260ff166060830152608082015260a00190565b60405180910390a150610b52565b60405162461bcd60e51b815260206004820152601660248201527f726f756e6420776173206e6f74207061696420666f720000000000000000000060448201526064016107cb565b50506001805550565b60005474010000000000000000000000000000000000000000900460ff1615610bc65760405162461bcd60e51b815260206004820152601060248201527f5061757361626c653a207061757365640000000000000000000000000000000060448201526064016107cb565b600260015403610c185760405162461bcd60e51b815260206004820152601f60248201527f5265656e7472616e637947756172643a207265656e7472616e742063616c6c0060448201526064016107cb565b6002600155333b15610c6c5760405162461bcd60e51b815260206004820152601460248201527f436f6e7472616374206e6f7420616c6c6f77656400000000000000000000000060448201526064016107cb565b333214610cbb5760405162461bcd60e51b815260206004820152601a60248201527f50726f787920636f6e7472616374206e6f7420616c6c6f77656400000000000060448201526064016107cb565b3360009081526009602052604081205490819003610d1b5760405162461bcd60e51b815260206004820152601060248201527f6e6f7468696e6720746f20636c61696d0000000000000000000000000000000060448201526064016107cb565b3360009081526009602052604081208190555b33600090815260086020526040902054811015610dec57336000908152600860205260408120805483908110610d6657610d66611f78565b60009182526020808320909101548083526007909152604090912060038101549192509060ff168015610da357506003810154610100900460ff16155b15610dd7576003810180547fffffffffffffffffffffffffffffffffffffffffffffffffffffffffffff00ff166101001790555b50508080610de490611fa4565b915050610d2e565b50600480546040517fa9059cbb0000000000000000000000000000000000000000000000000000000081523392810192909252602482018390526001600160a01b03169063a9059cbb906044016020604051808303816000875af1158015610e58573d6000803e3d6000fd5b505050506040513d601f19601f82011682018060405250810190610e7c9190611f56565b5060408051338152602081018390527ffd04ed5b7effcbeee6271e58baa05984df8c9c3167e577f60b9134f4178848bc91015b60405180910390a15060018055565b600b8181548110610ece57600080fd5b600091825260209091200154905081565b6000546001600160a01b03163314610f395760405162461bcd60e51b815260206004820181905260248201527f4f776e61626c653a2063616c6c6572206973206e6f7420746865206f776e657260448201526064016107cb565b610f4360006118a9565b565b6002546001600160a01b03163314610f8b5760405162461bcd60e51b81526020600482015260096024820152682737ba1030b236b4b760b91b60448201526064016107cb565b6001600160a01b038116610fe15760405162461bcd60e51b815260206004820152601660248201527f43616e6e6f74206265207a65726f20616464726573730000000000000000000060448201526064016107cb565b6004805473ffffffffffffffffffffffffffffffffffffffff19166001600160a01b0383169081179091556040519081527f1b2da3a8cc302f942643b808915983aafcb19eac5e65488cc5103f2905a5712b906020015b60405180910390a150565b6002600154036110955760405162461bcd60e51b815260206004820152601f60248201527f5265656e7472616e637947756172643a207265656e7472616e742063616c6c0060448201526064016107cb565b60026001819055546001600160a01b031633146110e05760405162461bcd60e51b81526020600482015260096024820152682737ba1030b236b4b760b91b60448201526064016107cb565b600480546002546040517fa9059cbb0000000000000000000000000000000000000000000000000000000081526001600160a01b039182169381019390935260248301849052169063a9059cbb906044016020604051808303816000875af1158015611150573d6000803e3d6000fd5b505050506040513d601f19601f820116820180604052508101906111749190611f56565b506040518181527fb9197c6b8e21274bd1e2d9c956a88af5cfee510f630fab3f046300f88b42236190602001610eaf565b6002546001600160a01b031633146111eb5760405162461bcd60e51b81526020600482015260096024820152682737ba1030b236b4b760b91b60448201526064016107cb565b6111f7600a8383611a48565b505050565b6002546001600160a01b031633146112425760405162461bcd60e51b81526020600482015260096024820152682737ba1030b236b4b760b91b60448201526064016107cb565b806000036112925760405162461bcd60e51b815260206004820152601360248201527f47616d652063616e6e6f7420626520667265650000000000000000000000000060448201526064016107cb565b60068190556040518181527fe417e4f56f5891bd6bee6640182e9370ecebd2346df4f55151c1dface616d20f90602001611038565b6002546001600160a01b0316331461130d5760405162461bcd60e51b81526020600482015260096024820152682737ba1030b236b4b760b91b60448201526064016107cb565b6111f7600b8383611af1565b6002546001600160a01b0316331461135f5760405162461bcd60e51b81526020600482015260096024820152682737ba1030b236b4b760b91b60448201526064016107cb565b6001600160a01b0381166113b55760405162461bcd60e51b815260206004820152601660248201527f43616e6e6f74206265207a65726f20616464726573730000000000000000000060448201526064016107cb565b6003805473ffffffffffffffffffffffffffffffffffffffff19166001600160a01b0383169081179091556040519081527fc47d127c07bdd56c5ccba00463ce3bd3c1bca71b4670eea6e5d0c02e4aa156e290602001611038565b6008602052816000526040600020818154811061142c57600080fd5b90600052602060002001600091509150505481565b6002546001600160a01b031633146114875760405162461bcd60e51b81526020600482015260096024820152682737ba1030b236b4b760b91b60448201526064016107cb565b6001600160a01b0381166114dd5760405162461bcd60e51b815260206004820152601660248201527f43616e6e6f74206265207a65726f20616464726573730000000000000000000060448201526064016107cb565b6005805473ffffffffffffffffffffffffffffffffffffffff19166001600160a01b0383169081179091556040519081527ff0cce0eba5e08563ef9b046f9eeb69f379a36dccb72a5616f60c7e99e2659c6c90602001611038565b6002546001600160a01b0316331461157e5760405162461bcd60e51b81526020600482015260096024820152682737ba1030b236b4b760b91b60448201526064016107cb565b600c805460ff191660ff92909216919091179055565b600a81815481106115a457600080fd5b9060005260206000209060209182820401919006915054906101000a900460ff1681565b6000546001600160a01b031633146116225760405162461bcd60e51b815260206004820181905260248201527f4f776e61626c653a2063616c6c6572206973206e6f7420746865206f776e657260448201526064016107cb565b6001600160a01b03811661169e5760405162461bcd60e51b815260206004820152602660248201527f4f776e61626c653a206e6577206f776e657220697320746865207a65726f206160448201527f646472657373000000000000000000000000000000000000000000000000000060648201526084016107cb565b6116a7816118a9565b50565b6116b2611b2c565b6000828152600760205260409020546001600160a01b03166117165760405162461bcd60e51b815260206004820152601460248201527f6e6f74206578697374696e6720726f756e64496400000000000000000000000060448201526064016107cb565b600c5460009060649060ff16611735611730866001611fdc565b611906565b60ff161161176c57611746846119c5565b9050600b8160ff168154811061175e5761175e611f78565b906000526020600020015491505b60008481526007602090815260408083206002810186905560038101805460ff1916600117905580546001600160a01b031684526009909252909120546117b4908490611fdc565b81546001600160a01b03908116600090815260096020526040908190209290925560055491517ff242432a000000000000000000000000000000000000000000000000000000008152306004820152336024820152600260448201526001606482015260a06084820152600360a48201527f307830000000000000000000000000000000000000000000000000000000000060c482015291169063f242432a9060e401600060405180830381600087803b15801561187157600080fd5b505af1158015611885573d6000803e3d6000fd5b50505050506040805180820190915260ff9091168152602081019190915292915050565b600080546001600160a01b0383811673ffffffffffffffffffffffffffffffffffffffff19831681178455604051919092169283917f8be0079c531659141344cd1fd0a4f28419497f9722a3daafe3b4186f6b6457e09190a35050565b60008060644244604051602001611927929190918252602082015260400190565b6040516020818303038152906040528051906020012060001c61194a9190611ff4565b90506064611959826001612016565b8460405160200161199b92919060f89290921b7fff00000000000000000000000000000000000000000000000000000000000000168252600182015260210190565b6040516020818303038152906040528051906020012060001c6119be9190611ff4565b9392505050565b6000806119d183611906565b905060005b600a5460ff82161015611a3e57600a8160ff16815481106119f9576119f9611f78565b90600052602060002090602091828204019190069054906101000a900460ff1660ff168260ff1611611a2c579392505050565b80611a368161203b565b9150506119d6565b5060649392505050565b82805482825590600052602060002090601f01602090048101928215611ae15791602002820160005b83821115611ab257833560ff1683826101000a81548160ff021916908360ff1602179055509260200192600101602081600001049283019260010302611a71565b8015611adf5782816101000a81549060ff0219169055600101602081600001049283019260010302611ab2565b505b50611aed929150611b4a565b5090565b828054828255906000526020600020908101928215611ae1579160200282015b82811115611ae1578235825591602001919060010190611b11565b60405180604001604052806002906020820280368337509192915050565b5b80821115611aed5760008155600101611b4b565b600060208284031215611b7157600080fd5b81357fffffffff00000000000000000000000000000000000000000000000000000000811681146119be57600080fd5b600060208284031215611bb357600080fd5b5035919050565b80356001600160a01b0381168114611bd157600080fd5b919050565b600060208284031215611be857600080fd5b6119be82611bba565b6020808252825182820181905260009190848201906040850190845b81811015611c2957835183529284019291840191600101611c0d565b50909695505050505050565b60008083601f840112611c4757600080fd5b50813567ffffffffffffffff811115611c5f57600080fd5b6020830191508360208260051b8501011115611c7a57600080fd5b9250929050565b60008060208385031215611c9457600080fd5b823567ffffffffffffffff811115611cab57600080fd5b611cb785828601611c35565b90969095509350505050565b634e487b7160e01b600052604160045260246000fd5b604051601f8201601f1916810167ffffffffffffffff81118282101715611d0257611d02611cc3565b604052919050565b600082601f830112611d1b57600080fd5b8135602067ffffffffffffffff821115611d3757611d37611cc3565b8160051b611d46828201611cd9565b9283528481018201928281019087851115611d6057600080fd5b83870192505b84831015611d7f57823582529183019190830190611d66565b979650505050505050565b600082601f830112611d9b57600080fd5b813567ffffffffffffffff811115611db557611db5611cc3565b611dc86020601f19601f84011601611cd9565b818152846020838601011115611ddd57600080fd5b816020850160208301376000918101602001919091529392505050565b600080600080600060a08688031215611e1257600080fd5b611e1b86611bba565b9450611e2960208701611bba565b9350604086013567ffffffffffffffff80821115611e4657600080fd5b611e5289838a01611d0a565b94506060880135915080821115611e6857600080fd5b611e7489838a01611d0a565b93506080880135915080821115611e8a57600080fd5b50611e9788828901611d8a565b9150509295509295909350565b60008060408385031215611eb757600080fd5b611ec083611bba565b946020939093013593505050565b600060208284031215611ee057600080fd5b813560ff811681146119be57600080fd5b600080600080600060a08688031215611f0957600080fd5b611f1286611bba565b9450611f2060208701611bba565b93506040860135925060608601359150608086013567ffffffffffffffff811115611f4a57600080fd5b611e9788828901611d8a565b600060208284031215611f6857600080fd5b815180151581146119be57600080fd5b634e487b7160e01b600052603260045260246000fd5b634e487b7160e01b600052601160045260246000fd5b60007fffffffffffffffffffffffffffffffffffffffffffffffffffffffffffffffff8203611fd557611fd5611f8e565b5060010190565b60008219821115611fef57611fef611f8e565b500190565b60008261201157634e487b7160e01b600052601260045260246000fd5b500690565b600060ff821660ff84168060ff0382111561203357612033611f8e565b019392505050565b600060ff821660ff810361205157612051611f8e565b6001019291505056fea26469706673582212208d7b598fb644d7eedde87a23ccd56ddf3e32ebae4a509bccae366c5618473e4364736f6c634300080e0033",
  "immutableReferences": {},
  "source": "// SPDX-License-Identifier: MIT\n\npragma solidity ^0.8.0;\n\nimport \"./abstract/Ownable.sol\";\nimport \"./abstract/Pausable.sol\";\nimport \"./abstract/ReentrancyGuard.sol\";\nimport \"../node_modules/openzeppelin-solidity/contracts/interfaces/IERC20.sol\";\nimport \"../node_modules/openzeppelin-solidity/contracts/interfaces/IERC1155.sol\";\nimport \"../node_modules/openzeppelin-solidity/contracts/token/ERC1155/utils/ERC1155Holder.sol\";\n\n\ncontract SlotNFT is Ownable, Pausable, ReentrancyGuard, ERC1155Holder {\n\n    address public adminAddress; // address of the admin\n    address public operatorAddress; // address of the operator\n    address public gameToken; // you can pay with this token only\n    address public nftTokenAddress;\n    uint256 public gameFee;\n    mapping(uint256 => RoundInfo) public ledger; // key on roundId\n    mapping(address => uint256[]) public userRounds; // value is roundId\n    mapping(address => uint256) public userWinnings; // value is balance\n    uint8[] public brackets;\n    uint256[] public winnings;\n    uint8 public threshold;\n\n    struct RoundInfo {\n        address playerAddress;\n        uint256 roundId;\n        uint256 amount;\n        bool updated; // default false\n        bool claimed; // default false\n    }\n\n    event NewOperatorAddress(address operator);\n    event NewGameToken(address tokenAddress);\n    event NewNftAddress(address nftTokenAddress);\n    event GameFeeSet(uint256 gameFee);\n    event GameEntered(uint256 roundId, address user, uint256 gameFee, uint8 bracket, uint256 amount);\n    event ResultUpdated(uint256 roundId, uint256 amount, uint8 bracket);\n    event TreasuryClaim(uint256 amount);\n    event PlayerClaimed(address player, uint256 amount);\n\n    modifier onlyAdmin() {\n        require(msg.sender == adminAddress, \"Not admin\");\n        _;\n    }\n\n    modifier onlyAdminOrOperator() {\n        require(msg.sender == adminAddress || msg.sender == operatorAddress, \"Not operator/admin\");\n        _;\n    }\n\n    modifier onlyOperator() {\n        require(msg.sender == operatorAddress, \"Not operator\");\n        _;\n    }\n\n    modifier notContract() {\n        require(!_isContract(msg.sender), \"Contract not allowed\");\n        require(msg.sender == tx.origin, \"Proxy contract not allowed\");\n        _;\n    }\n\n    constructor(\n        address _adminAddress,\n        address _operatorAddress,\n        address _gameTokenAddress,\n        address _nftTokenAddress,\n        uint256 _gameFee\n    ) {\n        adminAddress = _adminAddress;\n        operatorAddress = _operatorAddress;\n        gameToken = _gameTokenAddress;\n        operatorAddress = _nftTokenAddress;\n        gameFee = _gameFee;\n    }\n\n    function setOperator(address _operatorAddress) external onlyAdmin {\n        require(_operatorAddress != address(0), \"Cannot be zero address\");\n        operatorAddress = _operatorAddress;\n\n        emit NewOperatorAddress(_operatorAddress);\n    }\n\n    function setNftTokenAddress(address _nftTokenAddress) external onlyAdmin {\n        require(_nftTokenAddress != address(0), \"Cannot be zero address\");\n        nftTokenAddress = _nftTokenAddress;\n\n        emit NewNftAddress(_nftTokenAddress);\n    }\n\n    function setBrackets(uint8[] calldata _brackets) external onlyAdmin {\n        brackets = _brackets;\n    }\n\n    function setWinnings(uint256[] calldata _winnings) external onlyAdmin {\n        winnings = _winnings;\n    }\n\n    function setThreshold(uint8 _threshold) external onlyAdmin {\n        threshold = _threshold;\n    }\n\n    function setGameFee(uint256 _gameFee) external onlyAdmin {\n        require(_gameFee != 0, \"Game cannot be free\");\n        gameFee = _gameFee;\n\n        emit GameFeeSet(_gameFee);\n    }\n\n    function setGameToken(address tokenAddress) external onlyAdmin {\n        require(tokenAddress != address(0), \"Cannot be zero address\");\n        gameToken = tokenAddress;\n\n        emit NewGameToken(tokenAddress);\n    }\n\n    function enterGame(uint256 _roundId) external whenNotPaused nonReentrant notContract {\n        require(_roundId != 0, \"missing RoundId\");\n\n        RoundInfo storage roundInfo = ledger[_roundId];\n        if (roundInfo.playerAddress != address(0x0)) {\n            revert(\"existing roundId\");\n        }\n\n        bool success = IERC20(gameToken).transferFrom(msg.sender, address(this), gameFee);\n\n        if (success) {\n            roundInfo.playerAddress = msg.sender;\n            roundInfo.amount = gameFee;\n            roundInfo.roundId = _roundId;\n            userRounds[msg.sender].push(_roundId);\n\n            uint256[2] memory result = setRoundResult(_roundId);\n\n            emit GameEntered(_roundId, msg.sender, gameFee, uint8(result[0]), result[1]);\n        } else {\n            revert(\"round was not paid for\");\n        }\n    }\n\n    function claim() external whenNotPaused nonReentrant notContract {\n        uint256 claimValue = userWinnings[msg.sender];\n        if (claimValue == 0) {\n            revert(\"nothing to claim\");\n        }\n\n        userWinnings[msg.sender] = 0;\n        for (uint256 i = 0; i < userRounds[msg.sender].length; i++) {\n            uint256 round = userRounds[msg.sender][i];\n            RoundInfo storage legerRound = ledger[round];\n            if (legerRound.updated && !legerRound.claimed) {\n\n                legerRound.claimed = true;\n            }\n        }\n\n        IERC20(gameToken).transfer(msg.sender, claimValue);\n        emit PlayerClaimed(msg.sender, claimValue);\n\n    }\n\n    function setRoundResult(uint256 _roundId) internal returns (uint256[2] memory) {\n        if (ledger[_roundId].playerAddress == address(0x0)) {\n            revert(\"not existing roundId\");\n        }\n\n        uint256 amount = 0;\n        uint8 bracket = 100;\n        if (getPseudoRandom(_roundId + 1) <= threshold) {\n            bracket = getBracketForRound(_roundId);\n            amount = winnings[bracket];\n        }\n        RoundInfo storage roundInfo = ledger[_roundId];\n        roundInfo.amount = amount;\n        roundInfo.updated = true;\n        userWinnings[roundInfo.playerAddress] = userWinnings[roundInfo.playerAddress] + amount;\n\n        // todo: change to work off the random number\n        if(true) {\n            IERC1155(nftTokenAddress).safeTransferFrom(address(this), msg.sender, 2, 1, \"0x0\");\n        }\n\n        uint256[2] memory result = [bracket, amount];\n        return result;\n    }\n\n    function getBracketForRound(uint256 _roundId) internal view returns (uint8) {\n        uint8 randomNumber = getPseudoRandom(_roundId);\n        for (uint8 i = 0; i < brackets.length; i++) {\n            if (randomNumber <= brackets[i]) {\n                return i;\n            }\n        }\n        return 100;\n    }\n\n    function getPseudoRandom(uint256 _roundId) internal view returns (uint8) {\n        uint8 number = uint8(uint256(keccak256(abi.encodePacked(block.timestamp, block.difficulty))) % 100);\n        return uint8(uint256(keccak256(abi.encodePacked(number + 1, _roundId))) % 100);\n    }\n\n    function claimTreasury(uint256 value) external nonReentrant onlyAdmin {\n        IERC20(gameToken).transfer(adminAddress, value);\n\n        emit TreasuryClaim(value);\n    }\n\n    function getUserWinnings(address _address) external view returns (uint256) {\n        return userWinnings[_address];\n    }\n\n    function getUserRounds(address _address) external view returns (uint256[] memory) {\n        return userRounds[_address];\n    }\n\n    function getLegerEntryForRoundId(uint256 _roundId) external view returns (RoundInfo memory) {\n        return ledger[_roundId];\n    }\n\n    function _isContract(address account) internal view returns (bool) {\n        uint256 size;\n        assembly {\n            size := extcodesize(account)\n        }\n        return size > 0;\n    }\n}\n",
  "sourcePath": "/Users/slavpilus/dev/arcadechain-contracts/contracts/SlotNFT.sol",
  "compiler": {
    "name": "solc",
    "version": "0.8.14+commit.80d49f37.Emscripten.clang"
  },
  "schemaVersion": "3.4.7",
  "updatedAt": "2022-10-06T19:11:28.286Z",
  "devdoc": {
    "kind": "dev",
    "methods": {
      "owner()": {
        "details": "Returns the address of the current owner."
      },
      "paused()": {
        "details": "Returns true if the contract is paused, and false otherwise."
      },
      "renounceOwnership()": {
        "details": "Leaves the contract without owner. It will not be possible to call `onlyOwner` functions anymore. Can only be called by the current owner. NOTE: Renouncing ownership will leave the contract without an owner, thereby removing any functionality that is only available to the owner."
      },
      "supportsInterface(bytes4)": {
        "details": "See {IERC165-supportsInterface}."
      },
      "transferOwnership(address)": {
        "details": "Transfers ownership of the contract to a new account (`newOwner`). Can only be called by the current owner."
      }
    },
    "version": 1
  },
  "userdoc": {
    "kind": "user",
    "methods": {},
    "version": 1
  }
}